:020000040800F2
:1000000000000220B9530008B5520008C35200088E
:10001000C9520008CF520008D55200080000000065
:10002000000000000000000000000000DB5200089B
:10003000E952000800000000F752000805530008CC
:10004000095400080954000809540008095400081C
:100050000954000809540008095400081153000805
:1000600009540008095400080954000809540008FC
:1000700009540008095400080954000809540008EC
:1000800009540008095400080954000809540008DC
:100090000954000809540008095400081F530008B7
:1000A00009540008095400080954000809540008BC
:1000B000095400082D530008095400080954000889
:1000C000095400084153000855530008095400081A
:1000D000095400080954000809540008095400088C
:1000E000695300080954000809540008095400081D
:1000F000095400080954000809540008095400086C
:10010000095400080954000809540008095400085B
:1001100079530008095400080954000809540008DC
:10012000095400080954000809540008095400083B
:1001300009540008000000000000000009540008F5
:10014000095400080954000809540008095400081B
:10015000095400080954000809540008095400080B
:1001600009540008095400080954000809540008FB
:100170000954000809540008000000000954000850
:080180000954000809540008AD
:1001880010B5054C237833B9044B13B10448AFF3C9
:1001980000800123237010BD0C0000200000000027
:1001A8006454000808B5034B1BB103490348AFF377
:1001B800008008BD00000000100000206454000802
:1001C80053B94AB9002908BF00281CBF4FF0FF31B6
:1001D8004FF0FF3000F072B9ADF1080C6DE904CEB4
:1001E80000F006F8DDF804E0DDE9022304B070470A
:1001F8002DE9F047089E04468846002B4BD18A42D9
:10020800154667D9B2FA82F24AB1C2F1200701FA5B
:1002180002F320FA07F7954047EA030894404FEAAB
:10022800154E230CB8FBFEF71FFA85FC0EFB17884A
:1002380043EA084307FB0CF1994209D9EB1807F187
:10024800FF3080F01B81994240F21881023F2B4415
:100258005B1AA4B2B3FBFEF00EFB103344EA03446E
:1002680000FB0CFCA44509D92C1900F1FF3380F0E0
:100278000781A44540F2048102382C4440EA074033
:10028800A4EB0C0400271EB1D4400023C6E90043A8
:100298003946BDE8F0878B4209D9002E00F0EB8083
:1002A8000027C6E9000138463946BDE8F087B3FAA9
:1002B80083F7002F47D18B4202D3824200F2FA80A3
:1002C800841A61EB030301209846002EE0D0C6E9AA
:1002D8000048DDE702B9FFDEB2FA82F2002A40F0F8
:1002E8008F80491B4FEA154E1FFA85F80127B1FB8D
:1002F800FEFC230C0EFB1C1143EA014308FB0CF126
:10030800994207D9EB180CF1FF3002D2994200F25A
:10031800CD808446591AA3B2B1FBFEF00EFB10142F
:1003280043EA044408FB00F8A04507D92C1900F15A
:10033800FF3302D2A04500F2B6801846A4EB0804A9
:1003480040EA0C409FE7C7F1200CBB4022FA0CFEA4
:100358004EEA030E01FA07F420FA0CF521FA0CF321
:100368004FEA1E482543B3FBF8F92C0C08FB193358
:100378001FFA8EFA44EA034309FB0AF49C4202FA84
:1003880007F200FA07F10BD91EEB030309F1FF305E
:1003980080F087809C4240F28480A9F1020973446E
:1003A8001B1BADB2B3FBF8F008FB103345EA03445E
:1003B80000FB0AFAA24508D91EEB040400F1FF333A
:1003C8006BD2A24569D90238744440EA0940A0FBBF
:1003D8000289A4EB0A044C45C2464B4654D351D07B
:1003E800002E69D0B1EB0A0564EB030404FA0CFC97
:1003F800FD40FC404CEA0505C6E90054002747E7E4
:10040800C2F1200320FA03F7954001FA02F021FA1D
:1004180003F34FEA154E3843010CB3FBFEF71FFAFE
:1004280085F80EFB173341EA034107FB08F38B42BB
:1004380004FA02F407D9691807F1FF3C2FD28B425E
:100448002DD9023F2944CB1A81B2B3FBFEF00EFB33
:10045800103341EA034100FB08F38B4207D96918BE
:1004680000F1FF3C17D28B4215D902382944C91A2A
:1004780040EA07473BE73746304609E70746E7E6DD
:100488001846FBE64145ABD2B8EB020A69EB0E020F
:1004980001381346A4E76046E9E7184695E767463A
:1004A800D1E781467CE702382C4447E7ACF1020CDF
:1004B8002B442FE7384608E73746E9E6704700BF80
:1004C80080B500AF0E4B1B680D4A43F400731360F0
:1004D8000B4B1B680A4A43F480631360084B1B6884
:1004E800074A43F480731360032000F04DF900209D
:1004F80000F008F804F00EFD0023184680BD00BF88
:10050800003C024080B582B000AF7860124B1A6898
:10051800124B1B7819464FF47A73B3FBF1F3B2FB15
:10052800F3F3184600F065F90346002B01D00123C8
:100538000EE07B680F2B0AD8002279684FF0FF3055
:1005480000F02DF9064A7B681360002300E00123C0
:1005580018460837BD4680BD08000020040000206A
:100568000000002080B400AF064B1B781A46064BEB
:100578001B681344044A136000BFBD465DF8047B42
:10058800704700BF040000202800002080B400AF9E
:10059800034B1B681846BD465DF8047B704700BFD7
:1005A8002800002080B584B000AF7860FFF7EEFF28
:1005B800B8607B68FB60FB68B3F1FF3F05D0094B6F
:1005C8001B781A46FB681344FB6000BFFFF7DEFF89
:1005D8000246BB68D31AFA689A42F7D800BF1037A8
:1005E800BD4680BD0400002080B485B000AF7860AF
:1005F8007B6803F00703FB600C4BDB68BB60BA68E1
:100608004FF6FF031340BB60FB681A02BB68134335
:1006180043F0BF6343F40033BB60044ABB68D36054
:1006280000BF1437BD465DF8047B704700ED00E05D
:1006380080B400AF044BDB681B0A03F007031846BD
:10064800BD465DF8047B704700ED00E080B483B0E0
:1006580000AF0346FB7197F90730002B0BDBFB79E2
:1006680003F01F02074997F907305B09012000FAD8
:1006780002F241F8232000BF0C37BD465DF8047B29
:10068800704700BF00E100E080B483B000AF0346CC
:100698003960FB7197F90730002B0ADB3B68DAB247
:1006A8000C4997F907301201D2B20B4483F80023A2
:1006B8000AE03B68DAB20849FB7903F00F03043B10
:1006C8001201D2B20B441A7600BF0C37BD465DF852
:1006D800047B704700E100E000ED00E080B489B0E1
:1006E80000AFF860B9607A60FB6803F00703FB614C
:1006F800FB69C3F10703042B28BF0423BB61FB6913
:100708000433062B02D9FB69033B00E000237B611D
:100718004FF0FF32BB6902FA03F3DA43BB681A40B1
:100728007B699A404FF0FF317B6901FA03F3D943A3
:100738007B680B40134318462437BD465DF8047B9D
:100748007047000080B582B000AF78607B68013BDD
:10075800B3F1807F01D301230FE00A4A7B68013B94
:1007680053600F214FF0FF30FFF78EFF054B00223B
:100778009A60044B07221A60002318460837BD46C2
:1007880080BD00BF10E000E080B582B000AF7860A7
:100798007868FFF729FF00BF0837BD4680BD80B5E0
:1007A80086B000AF0346B9607A60FB7300237B61B3
:1007B800FFF73EFF78617A68B9687869FFF78EFFBE
:1007C800024697F90F3011461846FFF75DFF00BF44
:1007D8001837BD4680BD80B582B000AF0346FB71B7
:1007E80097F907301846FFF731FF00BF0837BD46B5
:1007F80080BD80B582B000AF78607868FFF7A2FF4F
:10080800034618460837BD4680BD80B483B000AFA4
:1008180078607B6893F83530DBB2022B04D07B68B4
:1008280080225A6501230CE07B68052283F8352075
:100838007B681B681A687B681B6822F001021A60D3
:10084800002318460C37BD465DF8047B704780B41A
:1008580083B000AF78607B6893F83530DBB2184618
:100868000C37BD465DF8047B7047000080B489B042
:1008780000AF7860396000237B6100233B6100236F
:10088800BB610023FB616BE10122FB6902FA03F300
:100898007B613B681B687A6913403B613A697B69F5
:1008A8009A4240F05A813B685B68012B0BD03B6849
:1008B8005B68022B07D03B685B68112B03D03B6851
:1008C8005B68122B30D17B689B68BB61FB695B005E
:1008D800032202FA03F3DB43BA691340BB613B68A6
:1008E800DA68FB695B0002FA03F3BA691343BB6178
:1008F8007B68BA699A607B685B68BB610122FB69A7
:1009080002FA03F3DB43BA691340BB613B685B68D7
:100918001B0903F00102FB6902FA03F3BA691343E6
:10092800BB617B68BA695A607B68DB68BB61FB693D
:100938005B00032202FA03F3DB43BA691340BB618D
:100948003B689A68FB695B0002FA03F3BA691343D0
:10095800BB617B68BA69DA603B685B68022B03D0CD
:100968003B685B68122B23D1FB69DA087B68083285
:1009780053F82230BB61FB6903F007039B000F2289
:1009880002FA03F3DB43BA691340BB613B681A6997
:10099800FB6903F007039B0002FA03F3BA691343E8
:1009A800BB61FB69DA087B680832B96943F8221031
:1009B8007B681B68BB61FB695B00032202FA03F3D7
:1009C800DB43BA691340BB613B685B6803F0030211
:1009D800FB695B0002FA03F3BA691343BB617B68E6
:1009E800BA691A603B685B6803F08053002B00F01B
:1009F800B4800023FB605F4B5B6C5E4A43F480432A
:100A080053645C4B5B6C03F48043FB60FB685A4A9D
:100A1800FB699B08023352F82330BB61FB6903F082
:100A280003039B000F2202FA03F3DB43BA69134066
:100A3800BB617B68514A93422BD07B68504A9342F2
:100A480025D07B684F4A93421FD07B684E4A934219
:100A580019D07B684D4A934213D07B684C4A934225
:100A68000DD07B684B4A934207D07B684A4A934231
:100A780001D107230EE008230CE006230AE0052332
:100A880008E0042306E0032304E0022302E0012334
:100A980000E00023FA6902F0030292009340BA6969
:100AA8001343BB613449FB699B080233BA6941F8B7
:100AB80023203A4B1B68BB613B69DB43BA6913408F
:100AC800BB613B685B6803F48033002B03D0BA69D1
:100AD8003B691343BB61314ABB6913602F4B5B68A9
:100AE800BB613B69DB43BA691340BB613B685B6828
:100AF80003F40033002B03D0BA693B691343BB618D
:100B0800264ABB695360254B9B68BB613B69DB4345
:100B1800BA691340BB613B685B6803F48013002B20
:100B280003D0BA693B691343BB611C4ABB69936034
:100B38001A4BDB68BB613B69DB43BA691340BB6195
:100B48003B685B6803F40013002B03D0BA693B6968
:100B58001343BB61114ABB69D360FB690133FB6175
:100B6800FB690F2B7FF690AE00BF2437BD465DF8BA
:100B7800047B704700380240003801400000024002
:100B88000004024000080240000C0240001002402D
:100B98000014024000180240001C0240003C0140C2
:100BA80080B483B000AF78600B467B8013467B70BF
:100BB8007B78002B03D07A887B689A6103E07B8876
:100BC8001A047B689A6100BF0C37BD465DF8047B48
:100BD8007047000080B582B000AF0346FB80084B29
:100BE8005A69FB881340002B06D0054AFB885361DD
:100BF800FB88184600F006F800BF0837BD4680BDE0
:100C0800003C014080B483B000AF0346FB8000BFC6
:100C18000C37BD465DF8047B7047000080B584B092
:100C280000AF78607B68002B01D101231FE17B684E
:100C380093F83D30DBB2002B06D17B68002283F8A5
:100C48003C20786804F08EF97B68242283F83D20E4
:100C58007B681B681A687B681B6822F001021A60AF
:100C68007B681B681A687B681B6842F400421A603C
:100C78007B681B681A687B681B6822F400421A604C
:100C880002F04CF9F8607B685B687B4A934207D8AE
:100C9800FB687A4A934294BF01230023DBB206E043
:100CA800FB68774A934294BF01230023DBB2002BF1
:100CB80001D00123DBE0FB68724AA2FB03239B0CF3
:100CC800BB607B681B685B6823F03F017B681B681F
:100CD800BA680A435A607B681B681B6A23F03F01A5
:100CE8007B685B68644A934202D8BB68013309E0B9
:100CF800BB684FF4967202FB03F3634AA2FB03231B
:100D08009B0901337A6812680B4313627B681B687E
:100D1800DB6923F44F4222F0FF027B685B68564987
:100D28008B420DD8FB68591E7B685B685B00B1FB82
:100D3800F3F30133C3F30B03042B38BF04234FE051
:100D48007B689B68002B11D1FB68581E7B6859682B
:100D58000B465B000B44B0FBF3F30133C3F30B0307
:100D6800002B0CBF01230023DBB212E0FB68581EE6
:100D78007B6859680B469B000B4499000B44B0FBF9
:100D8800F3F30133C3F30B03002B0CBF0123002340
:100D9800DBB2002B01D0012322E07B689B68002B8B
:100DA8000ED1FB68581E7B6859680B465B000B44E4
:100DB800B0FBF3F30133C3F30B0343F400430FE039
:100DC800FB68581E7B6859680B469B000B449900CA
:100DD8000B44B0FBF3F30133C3F30B0343F4404379
:100DE800796809681343CB617B681B681B6823F02B
:100DF800C0017B68DA697B681B6A1A437B681B68D9
:100E08000A431A607B681B689B6823F4034323F03A
:100E1800FF037A6811697A68D26811437A681268A0
:100E28000B4393607B681B68DB6823F0FF017B68DA
:100E38005A697B689B691A437B681B680A43DA60B6
:100E48007B681B681A687B681B6842F001021A609D
:100E58007B6800221A647B68202283F83D207B6827
:100E680000221A637B68002283F83E20002318467C
:100E78001037BD4680BD00BFA08601007F841E00DC
:100E8800FF083D0083DE1B43D34D621080B588B058
:100E980000AF78600023BB617B681B685B687B617F
:100EA8007B68DB6A3B617B6893F83E30FB737B6849
:100EB80093F83D30BB73FB7B102B03D0FB7B402B9F
:100EC80040F0B6807B681B689B69BB617B681B68C8
:100ED8005B69FB61FB6903F00103002B0DD13B69E2
:100EE800B3F52A0F03D03B69B3F12A4F01D101238F
:100EF80000E00023012B00F02781FB6903F00103C8
:100F0800002B0CD07B695B0A03F00103002B06D091
:100F1800786801F0B0FB786800F01CFD87E0FB6999
:100F2800DB0803F00103002B09D07B695B0A03F09F
:100F38000103002B03D0786800F092FD77E0FB698D
:100F48005B0803F00103002B09D07B695B0A03F0FF
:100F58000103002B03D0786800F0ACFD67E0BB69A3
:100F68009B0803F00103002B30D07B681B685B688B
:100F780003F40063B3F5006F00F0E880FB69DB0958
:100F880003F00103002B0FD07B699B0A03F00103D8
:100F9800002B09D0FB699B0803F00103002B03D148
:100FA800786800F0E8F942E0FB699B0803F0010368
:100FB800002B00F0CB807B695B0A03F00103002B58
:100FC80000F0C480786800F072FABFE07B681B68A4
:100FD8005B6803F40063B3F5006F00F0B780FB694A
:100FE8009B0903F00103002B0FD07B699B0A03F0D8
:100FF8000103002B09D0FB699B0803F00103002BB8
:1010080003D1786800F03AFB11E0FB699B0803F014
:101018000103002B00F09A807B695B0A03F001034F
:10102800002B00F09380786800F0AAFB8EE08DE03A
:101038007B681B6C002B04D07B681B685B69FB61B9
:1010480007E07B681B689B69BB617B681B685B6901
:10105800FB61FB695B0803F00103002B12D07B697D
:101068005B0A03F00103002B0CD07B681B6C002B80
:1010780003D07B681B689B69BB61B969786800F01D
:1010880068FF66E0FB691B0903F00103002B09D028
:101098007B695B0A03F00103002B03D0786800F03A
:1010A8009DFF56E0BB7B212B02D0BB7B292B25D192
:1010B800FB69DB0903F00103002B0FD07B699B0A56
:1010C80003F00103002B09D0FB699B0803F001031F
:1010D800002B03D1786800F07EFE39E0FB699B089D
:1010E80003F00103002B33D07B695B0A03F0010393
:1010F800002B2DD0786800F0ABFE29E0FB699B0936
:1011080003F00103002B0FD07B699B0A03F0010356
:10111800002B09D0FB699B0803F00103002B03D1C6
:10112800786800F0B6FE14E0FB699B0803F0010341
:10113800002B0ED07B695B0A03F00103002B08D05B
:10114800786800F0E4FE04E000BF02E000BF00E0C1
:1011580000BF2037BD4680BD80B58AB000AF78603B
:101168007B681B685B693B627B681B685B68FB612B
:1011780000237B627B6893F83E30FB763B6A1B0A50
:1011880003F00103002B0ED0FB691B0A03F00103D7
:10119800002B08D07B6A43F001037B627B681B68E5
:1011A8006FF480725A613B6A5B0A03F00103002BFB
:1011B8000ED0FB691B0A03F00103002B08D07B6AE1
:1011C80043F002037B627B681B686FF400725A610C
:1011D8003B6A9B0A03F00103002B3FD0FB691B0A03
:1011E80003F00103002B39D0FB7EBB767B685B8D57
:1011F8009BB27B617B6893F83D30FB747B681B6B0B
:10120800FB60BB7E202B12D17B69002B0FD1FB7CAE
:10121800212B08D0FB7C292B05D0FB7C282B06D161
:10122800FB68212B03D1786801F008F816E07B6889
:101238001B686FF480625A617B6A43F004037B6227
:10124800FB7E102B02D0FB7E402B07D17B681B68EE
:101258001A687B681B6842F400721A603B6ADB0AF2
:1012680003F00103002B0ED0FB691B0A03F00103F6
:10127800002B08D07B6A43F008037B627B681B68FD
:101288006FF400625A617B6A002B08D07B681A6C85
:101298007B6A1A437B681A64786801F03FF800BFDC
:1012A8002837BD4680BD80B483B000AF786000BFEA
:1012B8000C37BD465DF8047B704780B483B000AF3F
:1012C800786000BF0C37BD465DF8047B704780B47A
:1012D80083B000AF786000BF0C37BD465DF8047B73
:1012E800704780B483B000AF786000BF0C37BD464C
:1012F8005DF8047B704780B483B000AF78600B461C
:10130800FB7013463B8000BF0C37BD465DF8047B7D
:10131800704780B483B000AF786000BF0C37BD461B
:101328005DF8047B704780B483B000AF786000BF7D
:101338000C37BD465DF8047B704780B483B000AFBE
:10134800786000BF0C37BD465DF8047B704780B4F9
:1013580083B000AF786000BF0C37BD465DF8047BF2
:10136800704780B483B000AF786000BF0C37BD46CB
:101378005DF8047B704780B584B000AF78607B6807
:1013880093F83D30FB737B6893F83E30BB737B6802
:10139800DB6ABB607B681B8D002B50D1FB7B212B4C
:1013A8004DD1BB68082B1DD0BB68202B1AD0BB6859
:1013B80013F5803F16D07B681B685A687B681B68EA
:1013C80022F4E0625A607B6811221A637B6800226B
:1013D80083F83E207B68202283F83D207868FFF759
:1013E80062FF60E07B681B685A687B681B6822F4B0
:1013F800E0625A607B681B681A687B681B6842F465
:1014080000721A607B6800221A637B68202283F8C6
:101418003D207B6893F83E30DBB2402B07D17B68D8
:10142800002283F83E207868FFF77DFF3BE07B6869
:10143800002283F83E207868FFF735FF33E0FB7B16
:10144800212B05D0BB7B402B2DD1FB7B222B2AD116
:101458007B685B8D9BB2002B08D17B681B685A6840
:101468007B681B6822F480625A601CE07B6893F8F2
:101478003E30DBB2402B03D1786800F098F812E0D8
:101488007B685B6A1A787B681B681A617B685B6A91
:101498005A1C7B685A627B685B8D9BB2013B9AB28F
:1014A8007B685A85FFE700BF1037BD4680BD80B511
:1014B80084B000AF78607B68DB6AFB607B6893F878
:1014C8003D30DBB2212B65D17B685B8D9BB2002B55
:1014D80012D07B685B6A1A787B681B681A617B6824
:1014E8005B6A5A1C7B685A627B685B8D9BB2013BC6
:1014F8009AB27B685A8556E0FB68082B1DD0FB68BA
:10150800202B1AD0FB6813F5803F16D07B681B6828
:101518005A687B681B6822F4E0625A607B68112273
:101528001A637B68002283F83E207B68202283F8B8
:101538003D207868FFF7B7FE35E07B681B685A687E
:101548007B681B6822F4E0625A607B681B681A6833
:101558007B681B6842F400721A607B6800221A6379
:101568007B68202283F83D207B6893F83E30DBB20D
:10157800402B07D17B68002283F83E207868FFF76C
:10158800D2FE10E07B68002283F83E207868FFF7DF
:101598008AFE08E07B6893F83E30DBB2402B02D12C
:1015A800786800F004F800BF1037BD4680BD80B4ED
:1015B80083B000AF78607B681B6D002B1DD17B6802
:1015C800DB6C012B0BD17B689B6CDAB27B681B68E8
:1015D8001A617B681B6D9A1C7B681A6548E07B68FA
:1015E8009B6C9BB21B12DAB27B681B681A617B6822
:1015F8001B6D5A1C7B681A653AE07B681B6D012BD2
:101608000BD17B689B6CDAB27B681B681A617B68BC
:101618001B6D5A1C7B681A652AE07B681B6D022BC0
:1016280026D17B6893F83D30DBB2222B08D17B684A
:101638001B681A687B681B6842F480721A6017E09E
:101648007B6893F83D30DBB2212B11D17B685B6A54
:101658001A787B681B681A617B685B6A5A1C7B680E
:101668005A627B685B8D9BB2013B9AB27B685A8554
:1016780000BF0C37BD465DF8047B704780B584B069
:1016880000AF78607B6893F83D30DBB2222B73D1D2
:101698007B685B8D9BB2FB60FB68032B20D97B6862
:1016A8001B681A697B685B6AD2B21A707B685B6ACE
:1016B8005A1C7B685A627B685B8D9BB2013B9AB26D
:1016C8007B685A857B685B8D9BB2032B54D17B6802
:1016D8001B685A687B681B6822F480625A604BE07A
:1016E8007B68DB6A022B47D0FB68012B02D0FB68C2
:1016F800002B41D17B681B681A687B681B6822F441
:1017080080621A607B681B685A687B681B6822F4D1
:10171800E0625A607B681B681A697B685B6AD2B2B0
:101728001A707B685B6A5A1C7B685A627B685B8D9F
:101738009BB2013B9AB27B685A857B68202283F86A
:101748003D207B6893F83E30DBB2402B0AD17B68A2
:10175800002283F83E207B6800221A637868FFF72E
:10176800ECFD09E07B68002283F83E207B681222AA
:101778001A637868FFF7A1FD00BF1037BD4680BD2A
:1017880080B584B000AF78607B68DB6AFB607B68FB
:101798005B8D9BB2042B1BD17B681B685A687B68E6
:1017A8001B6822F480625A607B681B681A697B6830
:1017B8005B6AD2B21A707B685B6A5A1C7B685A6291
:1017C8007B685B8D9BB2013B9AB27B685A85BDE012
:1017D8007B685B8D9BB2032B29D17B681B685A6899
:1017E8007B681B6822F480625A60FB68042B0AD06D
:1017F800FB68022B07D07B681B681A687B681B682C
:1018080022F480621A607B681B681A697B685B6ACD
:10181800D2B21A707B685B6A5A1C7B685A627B6812
:101828005B8D9BB2013B9AB27B685A858EE07B68E0
:101838005B8D9BB2022B76D1FB68012B02D0FB6833
:10184800102B08D17B681B681A687B681B6822F418
:1018580080621A6019E0FB68042B02D0FB68022B37
:1018680008D17B681B681A687B681B6842F4806231
:101878001A600AE0FB68102B07D07B681B681A689F
:101888007B681B6842F400721A607B681B681A69DF
:101898007B685B6AD2B21A707B685B6A5A1C7B6889
:1018A8005A627B685B8D9BB2013B9AB27B685A8512
:1018B8007B681B681A697B685B6AD2B21A707B689E
:1018C8005B6A5A1C7B685A627B685B8D9BB2013BE2
:1018D8009AB27B685A857B681B685A687B681B6864
:1018E80022F440725A607B68202283F83D207B688E
:1018F80093F83E30DBB2402B0AD17B68002283F894
:101908003E207B6800221A637868FFF716FD1DE009
:101918007B68002283F83E207B6812221A6378686D
:10192800FFF7CBFC12E07B681B681A697B685B6A6F
:10193800D2B21A707B685B6A5A1C7B685A627B68F1
:101948005B8D9BB2013B9AB27B685A8500BF10370A
:10195800BD4680BD80B483B000AF78607B6893F8E3
:101968003E30DBB2402B17D17B681B6D002B09D1B1
:101978007B685B6CDBB21A467B681B6802F0FE0270
:101988001A6167E07B685B6CDBB243F00103DAB293
:101998007B681B681A615DE07B681B69B3F5804F43
:1019A80033D17B6893F83D30DBB2212B09D17B68BA
:1019B8005B6CDBB21A467B681B6802F0FE021A6198
:1019C80008E07B685B6CDBB243F00103DAB27B684A
:1019D8001B681A617B685B6B002B04D07B685B6BB0
:1019E800DB6B002B08D17B689B6B002B32D07B68AC
:1019F8009B6BDB6B002B2DD07B681B685A687B6860
:101A08001B6842F400625A6024E07B681B6D002B5F
:101A18000ED17B685B6C9BB2DB11DBB203F0060373
:101A2800DBB263F00F03DAB27B681B681A6111E05E
:101A38007B681B6D012B0DD17B685B6C9BB2DB1146
:101A4800DBB203F00603DBB263F00E03DAB27B68A5
:101A58001B681A6100BF0C37BD465DF8047B7047F0
:101A680080B483B000AF78607B685B6CDAB27B6867
:101A78001B681A617B685B6B002B03D17B689B6BCF
:101A8800002B11D07B685B6BDB6B002B04D17B6870
:101A98009B6BDB6B002B07D07B681B685A687B68E5
:101AA8001B6842F400625A6000BF0C37BD465DF8FF
:101AB800047B704780B491B000AF78607B6893F87E
:101AC8003E3087F83F307B68DB6ABB637B681B6B03
:101AD8007B637B6893F83D30DBB2222B40F0698151
:101AE8007B681B6D002B0FD197F83F30402B0BD133
:101AF80000233B637B681B685B693B637B681B68EF
:101B08009B693B633B6B60E17B681B6D002B1DD1C0
:101B18007B681B69B3F5404F18D10023FB627B68D3
:101B28001B685B69FB627B681B689B69FB62FB6ADD
:101B38007B681B681A687B681B6842F480721A60AD
:101B48007B681B6D5A1C7B681A653EE17B685B8D60
:101B58009BB2002B13D10023BB627B681B685B69B7
:101B6800BB627B681B689B69BB62BB6A7B681B683E
:101B78001A687B681B6842F400721A6015E17B687A
:101B88005B8D9BB2012B40F08A80BB6B13F5803FC5
:101B980037D17B681B681A687B681B6822F48062EF
:101BA8001A607B681B685B6803F40063B3F5006F19
:101BB80013D17B681B681A687B681B6822F48062F3
:101BC8001A6000237B627B681B685B697B627B68A9
:101BD8001B689B697B627B6AE7E000233B627B684A
:101BE8001B685B693B627B681B689B693B623B6A5D
:101BF8007B681B681A687B681B6842F400721A606D
:101C0800D3E0BB6B082B2ED0BB6B202B2BD07B6B70
:101C1800122B02D1BB6B012B25D1BB6B042B0ED031
:101C2800BB6B022B0BD0BB6B102B08D07B681B68DF
:101C38001A687B681B6822F480621A6007E07B6878
:101C48001B681A687B681B6842F480621A6000236C
:101C5800FB617B681B685B69FB617B681B689B6930
:101C6800FB61FB69A1E07B681B681A687B681B68DD
:101C780022F480621A600023BB617B681B685B6981
:101C8800BB617B681B689B69BB61BB697B681B6820
:101C98001A687B681B6842F400721A6085E07B68EA
:101CA8005B8D9BB2022B4DD1BB6B042B16D0BB6B4B
:101CB800022B13D0BB6B102B10D07B681B681A68E3
:101CC8007B681B6822F480621A607B681B681A684C
:101CD8007B681B6842F400621A6007E07B681B6837
:101CE8001A687B681B6842F480621A607B681B680C
:101CF8005B6803F40063B3F5006F17D1BB6B13F592
:101D0800803F0BD0BB6B012B08D0BB6B082B05D0D9
:101D1800BB6B102B02D0BB6B202B07D17B681B68D9
:101D28005A687B681B6842F480525A6000237B61C2
:101D38007B681B685B697B617B681B689B697B614F
:101D48007B6932E07B681B681A687B681B6842F411
:101D580080621A607B681B685B6803F40063B3F5F4
:101D6800006F17D1BB6B13F5803F0BD0BB6B012BFA
:101D780008D0BB6B082B05D0BB6B102B02D0BB6BFC
:101D8800202B07D17B681B685A687B681B6842F464
:101D980080525A6000233B617B681B685B693B612A
:101DA8007B681B689B693B613B697B6800221A65FD
:101DB8000BE00023FB607B681B685B69FB607B684A
:101DC8001B689B69FB60FB68FFE700BF4437BD46A3
:101DD8005DF8047B704780B584B000AF78607B689D
:101DE80093F83D30FB737B685B8D9BB2002B2BD047
:101DF8007B685B6A1A787B681B681A617B685B6A18
:101E08005A1C7B685A627B685B8D9BB2013B9AB215
:101E18007B685A857B685B8D9BB2002B14D1FB7B5A
:101E2800292B11D17B681B685A687B681B6822F4D0
:101E380080625A607B6821221A637B68282283F8B3
:101E48003D207868FFF743FA00BF1037BD4680BDD4
:101E580080B483B000AF78607B685B8D9BB2002B49
:101E680011D07B685B6A1A787B681B681A617B688B
:101E78005B6A5A1C7B685A627B685B8D9BB2013B2C
:101E88009AB27B685A8500BF0C37BD465DF8047B63
:101E9800704780B584B000AF78607B6893F83D30B8
:101EA800FB737B685B8D9BB2002B2CD07B681B6817
:101EB8001A697B685B6AD2B21A707B685B6A5A1CC3
:101EC8007B685A627B685B8D9BB2013B9AB27B68E8
:101ED8005A857B685B8D9BB2002B14D1FB7B2A2B28
:101EE80011D17B681B685A687B681B6822F4806282
:101EF8005A607B6822221A637B68282283F83D2077
:101F08007868FFF7EEF900BF1037BD4680BD80B492
:101F180083B000AF78607B685B8D9BB2002B12D0DA
:101F28007B681B681A697B685B6AD2B21A707B6827
:101F38005B6A5A1C7B685A627B685B8D9BB2013B6B
:101F48009AB27B685A8500BF0C37BD465DF8047BA2
:101F5800704780B584B000AF786039600023FB73A8
:101F68007B6893F83D30DBB203F02803282B27D198
:101F78007B681B685A687B681B6822F480625A6019
:101F88003B689B0803F00103002B01D10123FB737D
:101F98003B68DB0903F00103002B03D17B68DB6896
:101FA800BB8102E07B689B69BB817B68002283F868
:101FB8003C20BA89FB7B19467868FFF79CF908E052
:101FC8007B681B686FF002025A617B68002283F805
:101FD8003C2000BF1037BD4680BD000080B584B0EE
:101FE80000AF78607B6893F83D30FB737B681B68B3
:101FF8005A687B681B6822F4E0625A600023BB6061
:102008007B681B685B69BB607B681B681A687B68B8
:102018001B6842F001021A60BB687B681B681A687B
:102028007B681B6822F480621A607B681B685B68A7
:1020380003F40063B3F5006F72D1FB7B222B02D04F
:10204800FB7B2A2B35D17B689B6B1B685B689AB23C
:102058007B685A857B685B8D9BB2002B05D07B68BB
:102068001B6C43F004027B681A647B681B685A681F
:102078007B681B6822F400625A607B689B6B184679
:10208800FEF7E5FB0346012B49D07B689B6B694A49
:102098001A657B689B6B1846FEF7B7FB0346002B57
:1020A8003DD07B689B6B1B6D7A68926B1046984796
:1020B80035E07B685B6B1B685B689AB27B685A8506
:1020C8007B685B8D9BB2002B05D07B681B6C43F053
:1020D80004027B681A647B681B685A687B681B6803
:1020E80022F400625A607B685B6B1846FEF7AFFB10
:1020F8000346012B14D07B685B6B4E4A1A657B68DC
:102108005B6B1846FEF781FB0346002B08D07B6803
:102118005B6B1B6D7A68526B1046984700E000BFF6
:102128007B685B8D9BB2002B3ED07B681B685B692C
:1021380003F00403042B12D17B681B681A697B68BF
:102148005B6AD2B21A707B685B6A5A1C7B685A62F7
:102158007B685B8D9BB2013B9AB27B685A857B6832
:102168001B685B6903F04003402B12D17B681B6836
:102178001A697B685B6AD2B21A707B685B6A5A1C00
:102188007B685A627B685B8D9BB2013B9AB27B6825
:102198005A857B685B8D9BB2002B05D07B681B6CD6
:1021A80043F004027B681A647B681B6C002B03D025
:1021B800786800F0B3F839E0FB7B2A2B09D17B68FB
:1021C80000221A637B68282283F83D207868FFF78D
:1021D80088F87B6893F83D30DBB2282B11D17B68F7
:1021E800154ADA627B6800221A637B68202283F82A
:1021F8003D207B68002283F83E207868FFF789F845
:1022080014E07B681B6B222B02D0FB7B222B0DD1A9
:102218007B6800221A637B68202283F83D207B6854
:10222800002283F83E207868FFF75BF800BF10377C
:10223800BD4680BD812500080000FFFF80B584B041
:1022480000AF78607B6893F83D30FB737B68DB6A8E
:10225800BB60BB68082B02D0BB68202B29D1FB7B55
:10226800282B26D17B682C4ADA627B681B685A685F
:102278007B681B6822F4E0625A607B681B686FF415
:1022880080625A617B681B681A687B681B6822F445
:1022980080621A607B6800221A637B68202283F8B8
:1022A8003D207B68002283F83E207868FFF731F8EC
:1022B8002EE0FB7B212B26D17B68174ADA627B68EC
:1022C80021221A637B68202283F83D207B68002244
:1022D80083F83E207B681B685A687B681B6822F479
:1022E800E0625A607B681B686FF480625A617B68A1
:1022F8001B681A687B681B6822F480621A60786819
:10230800FEF7E5FF04E07B681B686FF480625A61A2
:1023180000BF1037BD4680BD0000FFFF80B584B008
:1023280000AF78607B6893F83D30FB737B6893F867
:102338003E30DBB2102B0AD1FB7B222B07D17B6806
:102348001B681A687B681B6822F400621A60FB7BB2
:1023580003F02803282B07D17B6800221A637B68C7
:10236800282283F83D2015E07B681B685B6803F42E
:102378000063B3F5006F06D0FB7B602B03D07B684E
:10238800202283F83D207B6800221A637B680022A4
:1023980083F83E207B681B685B6803F40063B3F531
:1023A800006F62D17B681B685A687B681B6822F4DF
:1023B80000625A607B685B6B93F83530DBB2012BA7
:1023C80020D07B685B6B6A4A1A657B685B6B184632
:1023D800FEF71BFA0346002B00F089807B681B6818
:1023E8001A687B681B6822F001021A607B68202249
:1023F80083F83D207B685B6B1B6D7A68526B1046D7
:10240800984774E07B689B6B594A1A657B689B6B9D
:102418001846FEF7FAF90346002B68D07B681B685C
:102428005B6903F04003402B0BD17B681B681A697A
:102438007B685B6AD2B21A707B685B6A5A1C7B68DD
:102448005A627B681B681A687B681B6822F0010265
:102458001A607B68202283F83D207B689B6B1B6D8C
:102468007A68926B1046984741E07B6893F83D3054
:10247800DBB2602B25D17B68202283F83D207B6866
:1024880000221A647B681B685B6903F04003402BD9
:102498000BD17B681B681A697B685B6AD2B21A70B9
:1024A8007B685B6A5A1C7B685A627B681B681A687F
:1024B8007B681B6822F001021A607868FEF751FFFA
:1024C80015E07B681B685B6903F04003402B0BD168
:1024D8007B681B681A697B685B6AD2B21A707B6872
:1024E8005B6A5A1C7B685A627868FEF730FF7B6823
:1024F8001B6CBB60BB6803F00103002B0ED1BB68EB
:1025080003F00203002B09D1BB6803F00403002B7E
:1025180004D1BB6803F00803002B07D07B681B6855
:102528005A687B681B6822F4E0625A607B6893F8FB
:102538003D30FB737B681B6C03F00403042B13D141
:10254800FB7B282B10D17B680A4ADA627B68002261
:102558001A637B68202283F83D207B68002283F879
:102568003E207868FEF7D5FE00BF1037BD4680BD17
:10257800812500080000FFFF80B584B000AF7860B7
:102588007B689B6BFB60FB6893F83D30FB72FB68D4
:102598005B6B002B03D0FB685B6B0022DA63FB6884
:1025A8009B6B002B03D0FB689B6B0022DA63FB68F4
:1025B8001B681A68FB681B6822F480621A60FB6853
:1025C80000225A85FB685B6B002B03D0FB685B6BB2
:1025D80000221A65FB689B6B002B03D0FB689B6B82
:1025E80000221A65FB681B681A68FB681B6822F0E2
:1025F80001021A60FB6893F83D30DBB2602B0ED104
:10260800FB68202283F83D20FB68002283F83E20E7
:10261800FB6800221A64F868FEF7A3FE27E0FB7A3D
:1026280003F02803282B17D1FB681B681A68FB687E
:102638001B6842F001021A60FB681B681A68FB6895
:102648001B6842F480621A60FB6800221A63FB6808
:10265800282283F83D2007E0FB68202283F83D20EC
:10266800FB68002283F83E20F868FEF770FE00BF82
:102678001037BD4680BD80B483B000AF78607B68FA
:10268800DB6AB3F52A0F03D17B680122DA6207E01F
:102698007B68DB6AB3F12A4F02D17B680822DA62D1
:1026A80000BF0C37BD465DF8047B704780B586B027
:1026B80000AF78607B68002B01D101235BE27B6867
:1026C8001B6803F00103002B75D0A34B9B6803F034
:1026D8000C03042B0CD0A04B9B6803F00C03082BB5
:1026E80012D19D4B5B6803F48003B3F5800F0BD1C7
:1026F800994B1B6803F40033002B5BD07B685B6845
:10270800002B57D1012336E27B685B68B3F5803F25
:1027180006D1914B1B68904A43F4803313601DE047
:102728007B685B68B3F5A02F0CD18B4B1B688A4A7A
:1027380043F480231360884B1B68874A43F4803333
:1027480013600BE0844B1B68834A23F480331360C7
:10275800814B1B68804A23F4802313607B685B6885
:10276800002B13D0FDF712FF386108E0FDF70EFFCC
:1027780002463B69D31A642B01D90323FBE1764B4C
:102788001B6803F40033002BF0D014E0FDF7FEFEC5
:10279800386108E0FDF7FAFE02463B69D31A642B5C
:1027A80001D90323E7E16C4B1B6803F40033002BCA
:1027B800F0D100E000BF7B681B6803F00203002B28
:1027C80063D0654B9B6803F00C03002B0BD0624B66
:1027D8009B6803F00C03082B1CD15F4B5B6803F468
:1027E8008003002B16D15C4B1B6803F00203002BFF
:1027F80005D07B68DB68012B01D00123BBE1564B78
:102808001B6823F0F8027B681B69DB0052491343FD
:102818000B603AE07B68DB68002B20D04F4B01222D
:102828001A60FDF7B3FE386108E0FDF7AFFE024617
:102838003B69D31A022B01D903239CE1464B1B6841
:1028480003F00203002BF0D0434B1B6823F0F8027F
:102858007B681B69DB00404913430B6015E03F4B65
:1028680000221A60FDF792FE386108E0FDF78EFE3F
:1028780002463B69D31A022B01D903237BE1364B6D
:102888001B6803F00203002BF0D17B681B6803F080
:102898000803002B30D07B685B69002B16D0304BC7
:1028A80001221A60FDF772FE386108E0FDF76EFE3E
:1028B80002463B69D31A022B01D903235BE1264B5D
:1028C8005B6F03F00203002BF0D015E0244B0022CD
:1028D8001A60FDF75BFE386108E0FDF757FE024617
:1028E8003B69D31A022B01D9032344E11A4B5B6FCE
:1028F80003F00203002BF0D17B681B6803F004038C
:10290800002B00F0A0800023FB75134B1B6C03F019
:102918008053002B0FD10023BB600F4B1B6C0E4A5A
:1029280043F0805313640C4B1B6C03F08053BB6063
:10293800BB680123FB750B4B1B6803F48073002BEA
:1029480021D1084B1B68074A43F480731360FDF7D5
:102958001DFE386111E000BF003802400000474208
:10296800800E474200700040FDF710FE02463B69AA
:10297800D31A022B01D90323FDE0814B1B6803F412
:102988008073002BF0D07B689B68012B06D17D4BB0
:102998001B6F7C4A43F0010313671CE07B689B684C
:1029A800052B0CD1774B1B6F764A43F00403136752
:1029B800744B1B6F734A43F0010313670BE0714BB1
:1029C8001B6F704A23F0010313676E4B1B6F6D4A30
:1029D80023F0040313677B689B68002B15D0FDF771
:1029E800D5FD38610AE0FDF7D1FD02463B69D31AEF
:1029F80041F28832934201D90323BCE0614B1B6F3B
:102A080003F00203002BEED014E0FDF7BFFD3861A0
:102A18000AE0FDF7BBFD02463B69D31A41F2883252
:102A2800934201D90323A6E0564B1B6F03F0020320
:102A3800002BEED1FB7D012B05D1524B1B6C514A6B
:102A480023F0805313647B689B69002B00F092800D
:102A58004C4B9B6803F00C03082B5CD07B689B698C
:102A6800022B41D1484B00221A60FDF78FFD3861D7
:102A780008E0FDF78BFD02463B69D31A022B01D90A
:102A8800032378E03F4B1B6803F00073002BF0D161
:102A98007B68DA697B681B6A1A437B685B6A9B01FF
:102AA8001A437B689B6A5B08013B1B041A437B68DB
:102AB800DB6A1B06334913434B60334B01221A6010
:102AC800FDF764FD386108E0FDF760FD02463B69EB
:102AD800D31A022B01D903234DE02A4B1B6803F0BC
:102AE8000073002BF0D045E0274B00221A60FDF759
:102AF8004DFD386108E0FDF749FD02463B69D31AF0
:102B0800022B01D9032336E01E4B1B6803F0007328
:102B1800002BF0D12EE07B689B69012B01D10123AA
:102B280029E0184B9B68FB60FB6803F480027B6814
:102B3800DB699A421CD1FB6803F03F027B681B6A81
:102B48009A4215D1FA6847F6C07313407A68526AF8
:102B580093420DD1FB6803F440327B689B6A9A422A
:102B680006D1FB6803F070627B68DB6A9A4201D089
:102B7800012300E0002318461837BD4680BD00BF7A
:102B880000700040003802406000474280B584B0C1
:102B980000AF786039607B68002B01D10123CCE05D
:102BA800684B1B6803F00F033A689A420CD9654BCF
:102BB8003A68D2B21A70634B1B6803F00F033A6885
:102BC8009A4201D00123B8E07B681B6803F0020336
:102BD800002B20D07B681B6803F00403002B05D072
:102BE800594B9B68584A43F4E05393607B681B68D1
:102BF80003F00803002B05D0534B9B68524A43F45B
:102C080060439360504B9B6823F0F0027B689B689D
:102C18004D4913438B607B681B6803F00103002B4D
:102C280044D07B685B68012B07D1474B1B6803F4D2
:102C38000033002B19D101237FE07B685B68022BEE
:102C480003D07B685B68032B07D13F4B1B6803F0FD
:102C58000073002B09D101236FE03B4B1B6803F085
:102C68000203002B01D1012367E0374B9B6823F057
:102C780003027B685B68344913438B60FDF786FC6D
:102C8800F8600AE0FDF782FC0246FB68D31A41F2BD
:102C98008832934201D903234FE02B4B9B6803F002
:102CA8000C027B685B689B009A42EBD1254B1B6842
:102CB80003F00F033A689A420CD2224B3A68D2B218
:102CC8001A70204B1B6803F00F033A689A4201D030
:102CD800012332E07B681B6803F00403002B08D053
:102CE800194B9B6823F4E0527B68DB681649134351
:102CF8008B607B681B6803F00803002B09D0124B1C
:102D08009B6823F460427B681B69DB000E49134310
:102D18008B6000F021F801460B4B9B681B0903F000
:102D28000F030A4AD35C21FA03F3094A1360094BDB
:102D38001B681846FDF7E6FB002318461037BD460A
:102D480080BD00BF003C0240003802407C540008AF
:102D58000800002000000020F0B585B000AF002377
:102D68007B600023FB6000233B600023BB60634B58
:102D78009B6803F00C03042B07D0082B08D0002B0A
:102D880040F0B4805E4BBB60B3E05D4BBB60B0E02D
:102D98005A4B5B6803F03F037B60584B5B6803F456
:102DA8008003002B4AD0554B5B689B094FF0000409
:102DB80040F2FF114FF0000203EA010504EA02069F
:102DC800294632464FF000034FF00004540144EA0C
:102DD800D1644B0119462246491B62EB06024FF0AB
:102DE80000034FF00004940144EA91648B015B1ADC
:102DF80064EB02044FF000014FF00002E20042EAE7
:102E08005372D9000B4614465B1944EB06044FF085
:102E180000014FF00002A20242EA935299020B46C7
:102E28001446184621467B684FF000041A4623468C
:102E3800FDF7C6F903460C46FB6049E02F4B5B687B
:102E48009B094FF0000440F2FF114FF0000203EA23
:102E5800010504EA0206294632464FF000034FF006
:102E68000004540144EAD1644B0119462246491B27
:102E780062EB06024FF000034FF00004940144EAAD
:102E880091648B015B1A64EB02044FF000014FF070
:102E98000002E20042EA5372D9000B4614465B195D
:102EA80044EB06044FF000014FF00002A20242EA90
:102EB800935299020B461446184621467B684FF0F8
:102EC80000041A462346FDF77BF903460C46FB60CF
:102ED8000A4B5B681B0C03F0030301335B003B6088
:102EE800FA683B68B2FBF3F3BB6002E0044BBB60DB
:102EF80000BFBB6818461437BD46F0BD0038024015
:102F08000024F40080B400AF034B1B681846BD468C
:102F18005DF8047B704700BF0800002080B500AF53
:102F2800FFF7F0FF0146054B9B689B0A03F0070378
:102F3800034AD35C21FA03F3184680BD00380240E7
:102F48008C54000880B500AFFFF7DCFF0146054B45
:102F58009B685B0B03F00703034AD35C21FA03F376
:102F6800184680BD003802408C54000880B582B0F5
:102F780000AF78607B68002B01D101231DE07B68DE
:102F880093F83D30DBB2002B06D17B68002283F832
:102F98003C20786802F03EF87B68022283F83D20E6
:102FA8007B681A687B6804331946104600F088FB72
:102FB8007B68012283F83D20002318460837BD4668
:102FC80080BD80B582B000AF78607B68002B01D1EE
:102FD80001231DE07B6893F83D30DBB2002B06D15E
:102FE8007B68002283F83C20786800F015F87B683D
:102FF800022283F83D207B681A687B6804331946EF
:10300800104600F05DFB7B68012283F83D20002319
:1030180018460837BD4680BD80B483B000AF7860DD
:1030280000BF0C37BD465DF8047B704780B586B09D
:1030380000AF786039607B68002B01D1012383E001
:103048007B6893F83D30DBB2002B06D17B68002209
:1030580083F83C20786801F0FDFF7B68022283F842
:103068003D207B681B689B687A68126823F480435C
:1030780023F0070393607B681A687B68043319465A
:10308800104600F01DFB7B681B689B687B617B68B2
:103098001B689B693B617B681B681B6AFB603B681C
:1030A8001B687A6913437B613B6923F4407323F0FF
:1030B80003033B613B689A683B689B691B021343A7
:1030C8003A6913433B613B6923F4406323F00C03E3
:1030D8003B613B6923F4704323F0F0033B613B6899
:1030E800DA683B68DB691B0213433A6913433B61A7
:1030F8003B681B691A013B681B6A1B0313433A6947
:1031080013433B61FB6823F02203FB60FB6823F059
:103118008803FB603B685A683B685B691B01134383
:10312800FA681343FB607B681B687A699A607B685E
:103138001B683A699A617B681B68FA681A627B683F
:10314800012283F83D20002318461837BD4680BD6C
:1031580080B582B000AF78607B681B681B6903F09C
:103168000203022B22D17B681B68DB6803F0020391
:10317800022B1BD17B681B686FF002021A617B6807
:1031880001221A777B681B689B6903F00303002BF5
:1031980003D0786800F075FA05E0786800F067FAFF
:1031A800786800F078FA7B6800221A777B681B68D9
:1031B8001B6903F00403042B22D17B681B68DB68BE
:1031C80003F00403042B1BD17B681B686FF0040217
:1031D8001A617B6802221A777B681B689B6903F473
:1031E8004073002B03D0786800F04BFA05E078684C
:1031F80000F03DFA786800F04EFA7B6800221A77F2
:103208007B681B681B6903F00803082B22D17B68C5
:103218001B68DB6803F00803082B1BD17B681B685D
:103228006FF008021A617B6804221A777B681B68B2
:10323800DB6903F00303002B03D0786800F021FA60
:1032480005E0786800F013FA786800F024FA7B68E3
:1032580000221A777B681B681B6903F01003102B88
:1032680022D17B681B68DB6803F01003102B1BD18D
:103278007B681B686FF010021A617B6808221A7756
:103288007B681B68DB6903F44073002B03D0786804
:1032980000F0F7F905E0786800F0E9F9786800F0DF
:1032A800FAF97B6800221A777B681B681B6903F0B0
:1032B8000103012B0ED17B681B68DB6803F0010357
:1032C800012B07D17B681B686FF001021A617868CF
:1032D80000F0C3F97B681B681B6903F08003802B2F
:1032E8000ED17B681B68DB6803F08003802B07D155
:1032F8007B681B686FF080021A61786800F050FDE7
:103308007B681B681B6903F04003402B0ED17B6868
:103318001B68DB6803F04003402B07D17B681B6800
:103328006FF040021A61786800F0BFF97B681B688B
:103338001B6903F02003202B0ED17B681B68DB6818
:1033480003F02003202B07D17B681B686FF0200255
:103358001A61786800F01AFD00BF0837BD4680BDC5
:1033680080B584B000AFF860B9607A60FB6893F804
:103378003C30012B01D10223B4E0FB68012283F821
:103388003C20FB68022283F83D207B680C2B00F26E
:103398009F8001A252F823F0D5330008D9340008E1
:1033A800D9340008D934000815340008D934000885
:1033B800D9340008D934000857340008D934000833
:1033C800D9340008D934000897340008FB681B6812
:1033D800B968184600F014FAFB681B689A69FB681C
:1033E8001B6842F008029A61FB681B689A69FB68CF
:1033F8001B6822F004029A61FB681B689969BB6824
:103408001A69FB681B680A439A6162E0FB681B68DB
:10341800B968184600F064FAFB681B689A69FB688B
:103428001B6842F400629A61FB681B689A69FB6832
:103438001B6822F480629A61FB681B689969BB6803
:103448001B691A02FB681B680A439A6141E0FB6822
:103458001B68B968184600F0B9FAFB681B68DA6996
:10346800FB681B6842F00802DA61FB681B68DA69CE
:10347800FB681B6822F00402DA61FB681B68D969E3
:10348800BB681A69FB681B680A43DA6121E0FB68BC
:103498001B68B968184600F00DFBFB681B68DA6901
:1034A800FB681B6842F40062DA61FB681B68DA6932
:1034B800FB681B6822F48062DA61FB681B68D969C3
:1034C800BB681B691A02FB681B680A43DA6100E0E3
:1034D80000BFFB68012283F83D20FB68002283F8C7
:1034E8003C20002318461037BD4680BD80B584B007
:1034F80000AF786039607B6893F83C30012B01D1CC
:103508000223A6E07B68012283F83C207B68022224
:1035180083F83D207B681B689B68FB60FB6823F091
:103528007703FB60FB6823F47F43FB607B681B68C1
:10353800FA689A603B681B68402B67D0402B0BD811
:10354800102B73D0102B02D8002B6FD078E0202BD3
:103558006CD0302B6AD073E0702B0DD0702B04D850
:10356800502B33D0602B41D06AE0B3F5805F66D032
:10357800B3F5005F17D063E07B6818683B6899680B
:103588003B685A683B68DB6800F064FB7B681B6833
:103598009B68FB60FB6843F07703FB607B681B68F4
:1035A800FA689A604CE07B6818683B6899683B68E1
:1035B8005A683B68DB6800F04DFB7B681B689A68BB
:1035C8007B681B6842F480429A6039E07B6818681F
:1035D8003B6859683B68DB681A4600F0C1FA7B68AB
:1035E8001B685021184600F01AFB29E07B68186810
:1035F8003B6859683B68DB681A4600F0E0FA7B686C
:103608001B686021184600F00AFB19E07B681868FF
:103618003B6859683B68DB681A4600F0A1FA7B688A
:103628001B684021184600F0FAFA09E07B681A681E
:103638003B681B681946104600F0F1FA00E000BF2D
:103648007B68012283F83D207B68002283F83C20B8
:10365800002318461037BD4680BD80B483B000AF44
:10366800786000BF0C37BD465DF8047B704780B4B6
:1036780083B000AF786000BF0C37BD465DF8047BAF
:10368800704780B483B000AF786000BF0C37BD4688
:103698005DF8047B704780B483B000AF786000BFEA
:1036A8000C37BD465DF8047B704780B483B000AF2B
:1036B800786000BF0C37BD465DF8047B704700009A
:1036C80080B485B000AF786039607B681B68FB60A8
:1036D8007B68404A934213D07B68B3F1804F0FD088
:1036E8007B683D4A93420BD07B683C4A934207D0A3
:1036F8007B683B4A934203D07B683A4A934208D19D
:10370800FB6823F07003FB603B685B68FA6813434F
:10371800FB607B682F4A93422BD07B68B3F1804FC4
:1037280027D07B682C4A934223D07B682B4A93424C
:103738001FD07B682A4A93421BD07B68294A934250
:1037480017D07B68284A934213D07B68274A934254
:103758000FD07B68264A93420BD07B68254A934258
:1037680007D07B68244A934203D07B68234A93425C
:1037780008D1FB6823F44073FB603B68DB68FA6898
:103788001343FB60FB6823F080023B685B691343CB
:10379800FB607B68FA681A603B689A687B68DA6243
:1037A8003B681A687B689A627B680A4A934203D02E
:1037B8007B680C4A934203D13B681A697B681A6399
:1037C8007B6801225A6100BF1437BD465DF8047B4F
:1037D800704700BF0000014000040040000800409E
:1037E800000C00400004014000400140004401403A
:1037F8000048014000180040001C00400020004024
:1038080080B487B000AF786039607B681B6A23F0AA
:1038180001027B681A627B681B6A7B617B685B6854
:103828003B617B689B69FB60FB6823F07003FB606E
:10383800FB6823F00303FB603B681B68FA681343CB
:10384800FB607B6923F002037B613B689B687A69B4
:1038580013437B617B68204A934203D07B681F4AED
:1038680093420CD17B6923F008037B613B68DB68DA
:103878007A6913437B617B6923F004037B617B686E
:10388800154A934203D07B68144A934211D13B698D
:1038980023F480733B613B6923F400733B613B680D
:1038A8005B693A6913433B613B689B693A69134317
:1038B8003B617B683A695A607B68FA689A613B6841
:1038C8005A687B685A637B687A691A6200BF1C373A
:1038D800BD465DF8047B70470000014000040140CC
:1038E80080B487B000AF786039607B681B6A23F0CA
:1038F80010027B681A627B681B6A7B617B685B6865
:103908003B617B689B69FB60FB6823F4E043FB60D9
:10391800FB6823F44073FB603B681B681B02FA6872
:103928001343FB607B6923F020037B613B689B6842
:103938001B017A6913437B617B68224A934203D057
:103948007B68214A93420DD17B6923F080037B6118
:103958003B68DB681B017A6913437B617B6923F051
:1039680040037B617B68174A934203D07B68164A01
:10397800934213D13B6923F480633B613B6923F491
:1039880000633B613B685B699B003A6913433B6199
:103998003B689B699B003A6913433B617B683A69C2
:1039A8005A607B68FA689A613B685A687B689A63D0
:1039B8007B687A691A6200BF1C37BD465DF8047BD4
:1039C800704700BF000001400004014080B487B088
:1039D80000AF786039607B681B6A23F480727B686B
:1039E8001A627B681B6A7B617B685B683B617B68EA
:1039F800DB69FB60FB6823F07003FB60FB6823F066
:103A08000303FB603B681B68FA681343FB607B6930
:103A180023F400737B613B689B681B027A6913433C
:103A28007B617B68214A934203D07B68204A93429A
:103A38000DD17B6923F400637B613B68DB681B0263
:103A48007A6913437B617B6923F480637B617B68BC
:103A5800164A934203D07B68154A934213D13B69B7
:103A680023F480533B613B6923F400533B613B687B
:103A78005B691B013A6913433B613B689B691B0106
:103A88003A6913433B617B683A695A607B68FA6814
:103A9800DA613B685A687B68DA637B687A691A621C
:103AA80000BF1C37BD465DF8047B7047000001402D
:103AB8000004014080B487B000AF786039607B684B
:103AC8001B6A23F480527B681A627B681B6A3B611D
:103AD8007B685B687B617B68DB69FB60FB6823F460
:103AE800E043FB60FB6823F44073FB603B681B68A2
:103AF8001B02FA681343FB603B6923F400533B61E4
:103B08003B689B681B033A6913433B617B68124A15
:103B1800934203D07B68114A934209D17B6923F40D
:103B280080437B613B685B699B017A6913437B61D6
:103B38007B687A695A607B68FA68DA613B685A6818
:103B48007B681A647B683A691A6200BF1C37BD46F5
:103B58005DF8047B704700BF00000140000401408D
:103B680080B487B000AFF860B9607A60FB681B6A00
:103B78007B61FB681B6A23F00102FB681A62FB6821
:103B88009B693B613B6923F0F0033B617B681B0148
:103B98003A6913433B617B6923F00A037B617A69C5
:103BA800BB6813437B61FB683A699A61FB687A6971
:103BB8001A6200BF1C37BD465DF8047B704780B4AD
:103BC80087B000AFF860B9607A60FB681B6A23F0C1
:103BD8001002FB681A62FB689B697B61FB681B6AC1
:103BE8003B617B6923F470437B617B681B037A69C3
:103BF80013437B613B6923F0A0033B61BB681B0156
:103C08003A6913433B61FB687A699A61FB683A69D0
:103C18001A6200BF1C37BD465DF8047B704780B44C
:103C280085B000AF786039607B689B68FB60FB6893
:103C380023F07003FB603A68FB68134343F0070303
:103C4800FB607B68FA689A6000BF1437BD465DF870
:103C5800047B704780B487B000AFF860B9607A60C1
:103C68003B60FB689B687B617B6923F47F437B61D6
:103C78003B681A027B681A43BB6813437A6913438B
:103C88007B61FB687A699A6000BF1C37BD465DF8A6
:103C9800047B704780B485B000AF786039607B687A
:103CA80093F83C30012B01D102235AE07B680122B2
:103CB80083F83C207B68022283F83D207B681B68E0
:103CC8005B68FB607B681B689B68BB60FB6823F0D4
:103CD8007003FB603B681B68FA681343FB607B68F2
:103CE8001B68FA685A607B681B68214A934222D095
:103CF8007B681B68B3F1804F1DD07B681B681D4A29
:103D0800934218D07B681B681B4A934213D07B6888
:103D18001B681A4A93420ED07B681B68184A934264
:103D280009D07B681B68174A934204D07B681B68DC
:103D3800154A93420CD1BB6823F08003BB603B68F3
:103D48005B68BA681343BB607B681B68BA689A6093
:103D58007B68012283F83D207B68002283F83C20A1
:103D6800002318461437BD465DF8047B704700BF32
:103D7800000001400004004000080040000C004022
:103D880000040140004001400018004080B483B0A6
:103D980000AF786000BF0C37BD465DF8047B704704
:103DA80080B483B000AF786000BF0C37BD465DF8C3
:103DB800047B704780B582B000AF78607B68002BC9
:103DC80001D101233FE07B6893F83930DBB2002B47
:103DD80006D17B68002283F83820786801F016FA4B
:103DE8007B68242283F839207B681B68DA687B6843
:103DF8001B6822F40052DA60786800F069FA7B6880
:103E08001B681A697B681B6822F490421A617B68F8
:103E18001B685A697B681B6822F02A025A617B6812
:103E28001B68DA687B681B6842F40052DA607B68BA
:103E38000022DA637B68202283F839207B682022FD
:103E480083F83A20002318460837BD4680BD000095
:103E580080B588B000AF78607B681B681B68FB6121
:103E68007B681B68DB68BB617B681B685B697B617F
:103E780000233B610023FB60FB6903F00F033B61F8
:103E88003B69002B0DD1FB6903F02003002B08D000
:103E9800BB6903F02003002B03D0786800F096F983
:103EA800D1E03B69002B00F0B0807B6903F001038F
:103EB800002B05D1BB6903F49073002B00F0A5809B
:103EC800FB6903F00103002B0AD0BB6903F480737C
:103ED800002B05D07B68DB6B43F001027B68DA635B
:103EE800FB6903F00403002B0AD07B6903F001038C
:103EF800002B05D07B68DB6B43F002027B68DA633A
:103F0800FB6903F00203002B0AD07B6903F001036D
:103F1800002B05D07B68DB6B43F004027B68DA6317
:103F2800FB6903F00803002B0FD0BB6903F02003E3
:103F3800002B04D17B6903F00103002B05D07B68BB
:103F4800DB6B43F008027B68DA637B68DB6B002B72
:103F580078D0FB6903F02003002B07D0BB6903F07E
:103F68002003002B02D0786800F030F97B681B68CA
:103F78005B6903F04003402B0CBF01230023DBB235
:103F8800FB607B68DB6B03F00803002B02D1FB6846
:103F9800002B31D0786800F079F87B681B685B6982
:103FA80003F04003402B23D17B681B685A697B6868
:103FB8001B6822F040025A617B685B6B002B13D0B0
:103FC8007B685B6B214A1A657B685B6B1846FCF75C
:103FD8001CFC0346002B16D07B685B6B1B6D7A6854
:103FE800526B104698470EE0786800F045F80AE0F2
:103FF800786800F041F806E0786800F03DF87B68E2
:104008000022DA631EE000BF1CE0FB6903F08003B6
:10401800002B08D0BB6903F08003002B03D078681D
:1040280000F066F80FE0FB6903F04003002B0AD0AC
:10403800BB6903F04003002B05D0786800F0AEF8A8
:1040480000BF00E000BF2037BD4680BDD14000085A
:1040580080B483B000AF786000BF0C37BD465DF810
:10406800047B704780B483B000AF786000BF0C3722
:10407800BD465DF8047B704780B483B000AF7860BC
:1040880000BF0C37BD465DF8047B704780B483B031
:1040980000AF78607B681B68DA687B681B6822F46D
:1040A8009072DA607B681B685A697B681B6822F02B
:1040B80001025A617B68202283F83A2000BF0C373E
:1040C800BD465DF8047B704780B584B000AF78606A
:1040D8007B689B6BFB60FB680022DA85FB6800222B
:1040E800DA84F868FFF7C8FF00BF1037BD4680BD07
:1040F80080B485B000AF78607B6893F83930DBB264
:10410800212B44D17B689B68B3F5805F1AD17B680B
:104118001B6AFB60FB681B881A467B681B68C2F336
:1041280008025A607B681B69002B05D17B681B6AF3
:104138009A1C7B681A620EE07B681B6A5A1C7B68B3
:104148001A6208E07B681B6A591C7A6811621A783F
:104158007B681B685A607B68DB8C9BB2013B9BB217
:104168007A681946D184002B0FD17B681B68DA68FE
:104178007B681B6822F08002DA607B681B68DA685B
:104188007B681B6842F04002DA60002300E00223EB
:1041980018461437BD465DF8047B704780B582B079
:1041A80000AF78607B681B68DA687B681B6822F060
:1041B8004002DA607B68202283F839207868FFF7AC
:1041C80047FF002318460837BD4680BD80B584B038
:1041D80000AF78607B6893F83A30DBB2222B71D15C
:1041E8007B689B68B3F5805F23D17B689B6AFB6023
:1041F8007B681B69002B0ED17B681B685B689BB2D0
:10420800C3F308039AB2FB681A807B689B6A9A1CFE
:104218007B689A6229E07B681B685B689BB2DBB2AB
:104228009AB2FB681A807B689B6A5A1C7B689A6200
:104238001BE07B681B69002B0AD17B681B685868E8
:104248007B689B6A591C7A689162C2B21A700CE04A
:104258007B681B685B68DAB27B689B6A581C796864
:10426800886202F07F02D2B21A707B68DB8D9BB243
:10427800013B9BB27A681946D185002B20D17B6817
:104288001B68DA687B681B6822F02002DA607B68AA
:104298001B68DA687B681B6822F48072DA607B68C6
:1042A8001B685A697B681B6822F001025A617B68A7
:1042B800202283F83A207868FFF7D4FE002302E032
:1042C800002300E0022318461037BD4680BD0000D9
:1042D8002DE9F04F85B000AF78607B681B681B69DB
:1042E80023F440517B68DA687B681B680A431A61CB
:1042F8007B689A687B681B691A437B685B691A4309
:104308007B68DB691343FB607B681B68DB6823F40D
:10431800164323F00C037A681268F9680B43D360DC
:104328007B681B685B6923F440717B689A697B68CA
:104338001B680A435A617B68DB69B3F5004F40F09C
:104348008B817B681B68C14A934205D07B681B68D8
:10435800BF4A934240F0BD80FEF7F4FDB860BB68E9
:104368001D464FF00006A846B14618EB080349EB76
:1043780009049846A14618EB050849EB06094FF0D1
:1043880000014FF000024FEAC90242EA58724FEAB0
:10439800C8018846914618EB050049EB06017B6881
:1043A8005B681D464FF000066B1946EB06041A467B
:1043B8002346FBF705FF03460C461A46A54BA3FB0D
:1043C80002235B094FEA0318BB681D464FF000063D
:1043D800A946B24619EB09034AEB0A049946A246D4
:1043E80019EB05094AEB060A4FF000014FF00002ED
:1043F8004FEACA0242EA59724FEAC901894692460F
:1044080019EB05004AEB06017B685B681D464FF017
:1044180000066B1946EB06041A462346FBF7D0FE46
:1044280003460C461A468B4BA3FB02135B09642117
:1044380001FB03F3D31ADB003233864AA2FB0323C2
:104448005B095B0003F4F8739844BB681D464FF0A2
:104458000006A946B24619EB09034AEB0A04994635
:10446800A24619EB05094AEB060A4FF000014FF086
:1044780000024FEACA0242EA59724FEAC901894664
:10448800924619EB05004AEB06017B685B681D46FE
:104498004FF000066B1946EB06041A462346FBF755
:1044A8008FFE03460C461A466A4BA3FB02135B09B0
:1044B800642101FB03F3D31ADB003233654AA2FB04
:1044C80003235B0903F007027B681B6842449A6078
:1044D8006FE2FEF723FDB860BB681D464FF000068B
:1044E800A846B14618EB080349EB09049846A146CB
:1044F80018EB050849EB06094FF000014FF00002E0
:104508004FEAC90242EA58724FEAC8018846914602
:1045180018EB050049EB06017B685B681D464FF008
:1045280000066B1946EB06041A462346FBF748FEBD
:1045380003460C461A46474BA3FB02235B094FEA86
:104548000318BB681D464FF00006A946B24619EB92
:1045580009034AEB0A049946A24619EB05094AEBF6
:10456800060A4FF000014FF000024FEACA0242EA81
:1045780059724FEAC9018946924619EB05004AEB80
:1045880006017B685B681D464FF000066B1946EB19
:1045980006041A462346FBF713FE03460C461A4642
:1045A8002C4BA3FB02135B09642101FB03F3D31A11
:1045B800DB003233274AA2FB03235B095B0003F4C9
:1045C800F8739844BB681D464FF00006A946B246EA
:1045D80019EB09034AEB0A049946A24619EB0509A7
:1045E8004AEB060A4FF000014FF000024FEACA02F8
:1045F80042EA59724FEAC9018946924619EB050009
:104608004AEB06017B685B681D464FF000066B1994
:1046180046EB06041A462346FBF7D2FD03460C4632
:104628001A460C4BA3FB02135B09642101FB03F33D
:10463800D31ADB003233074AA2FB03235B0903F0DA
:1046480007027B681B6842449A60B2E1001001408F
:10465800001401401F85EB517B681B68D74A9342C1
:1046680005D07B681B68D64A934240F0D180FEF79C
:1046780069FCB860BB689A464FF0000BD046D94633
:1046880018EB080349EB09049846A14618EB0A08F9
:1046980049EB0B094FF000014FF000024FEAC90245
:1046A80042EA58724FEAC801884691461AEB080553
:1046B8004BEB09067B685B6819464FF000024FF028
:1046C80000034FF00004940044EA91748B001A46EA
:1046D800234628463146FBF773FD03460C461A4627
:1046E800B84BA3FB02235B094FEA0318BB689B4640
:1046F8004FF0000CD946E24619EB09034AEB0A04CD
:104708009946A24619EB0B094AEB0C0A4FF0000137
:104718004FF000024FEACA0242EA59724FEAC90151
:10472800894692461BEB09054CEB0A067B685B68D9
:1047380019464FF000024FF000034FF000049400B8
:1047480044EA91748B001A46234628463146FBF703
:1047580037FD03460C461A469A4BA3FB02135B0926
:10476800642101FB03F3D31A1B013233954AA2FBE0
:1047780003235B0903F0F0039844BB689B464FF0A2
:10478800000CD946E24619EB09034AEB0A0499469C
:10479800A24619EB0B094AEB0C0A4FF000014FF047
:1047A80000024FEACA0242EA59724FEAC901894631
:1047B80092461BEB09054CEB0A067B685B681946B9
:1047C8004FF000024FF000034FF00004940044EA59
:1047D80091748B001A46234628463146FBF7F0FCB5
:1047E80003460C461A46774BA3FB02135B09642168
:1047F80001FB03F3D31A1B013233724AA2FB0323D2
:104808005B0903F00F027B681B6842449A60D0E0A2
:10481800FEF784FBB860BB689A464FF0000BD046A1
:10482800D94618EB080349EB09049846A14618EB4A
:104838000A0849EB0B094FF000014FF000024FEA5C
:10484800C90242EA58724FEAC801884691461AEBF3
:1048580008054BEB09067B685B6819464FF00002B8
:104868004FF000034FF00004940044EA91748B0069
:104878001A46234628463146FBF7A2FC03460C4657
:104888001A46504BA3FB02235B094FEA0318BB6887
:104898009B464FF0000CD946E24619EB09034AEB58
:1048A8000A049946A24619EB0B094AEB0C0A4FF089
:1048B80000014FF000024FEACA0242EA59724FEA79
:1048C800C901894692461BEB09054CEB0A067B6831
:1048D8005B6819464FF000024FF000034FF00004E8
:1048E800940044EA91748B001A46234628463146C0
:1048F800FBF766FC03460C461A46324BA3FB021331
:104908005B09642101FB03F3D31A1B0132332D4ADF
:10491800A2FB03235B0903F0F0039844BB689B46A2
:104928004FF0000CD946E24619EB09034AEB0A049A
:104938009946A24619EB0B094AEB0C0A4FF0000105
:104948004FF000024FEACA0242EA59724FEAC9011F
:10495800894692461BEB09054CEB0A067B685B68A7
:1049680019464FF000024FF000034FF00004940086
:1049780044EA91748B001A46234628463146FBF7D1
:104988001FFC03460C461A460E4BA3FB02135B0999
:10499800642101FB03F3D31A1B013233094AA2FB3A
:1049A80003235B0903F00F027B681B6842449A608B
:1049B800FFE700BF1437BD46BDE8F08F0010014087
:1049C800001401401F85EB5180B500AFFBF778FD5F
:1049D80000F022F800F000FA00F088F800F0B4F8CF
:1049E80000F028F900F07AF900F0CCF901224FF430
:1049F80080510848FCF7D4F8C820FBF7D3FD002203
:104A08004FF480510348FCF7CBF8C820FBF7CAFDE8
:104A1800ECE700BF0008024080B594B000AF07F192
:104A2800200330220021184600F010FD07F10C0386
:104A380000221A605A609A60DA601A610023BB602B
:104A4800284B1B6C274A43F080531364254B1B6C7F
:104A580003F08053BB60BB6800237B60224B1B685C
:104A6800214A43F4804313601F4B1B6803F48043BF
:104A78007B607B6801233B624FF480337B620223B7
:104A8800BB634FF48003FB6310233B64C0237B6448
:104A98000223BB640423FB6407F120031846FDF7D7
:104AA80005FE0346002B01D000F02CFA0F23FB6013
:104AB80002233B6180237B614FF48053BB614FF439
:104AC8008053FB6107F10C0301211846FEF75EF8DD
:104AD8000346002B01D000F015FA00BF5037BD4641
:104AE80080BD00BF003802400070004080B500AFB4
:104AF800124B134A1A60114B124A5A600F4B00228C
:104B08009A600E4B0022DA600C4B4FF480421A6117
:104B18000A4B00225A61094B00229A61074B002276
:104B2800DA61064B00221A620448FCF777F803465C
:104B3800002B01D000F0E6F900BF80BD6C0000201A
:104B480000580040A086010080B58EB000AF07F184
:104B5800280300221A605A609A60DA6007F120037D
:104B680000221A605A603B1D00221A605A609A603F
:104B7800DA601A615A619A612D4B4FF080421A60CF
:104B88002B4B01225A602A4B00229A60284B4FF483
:104B98001662DA60264B00221A61254B00229A61C0
:104BA8002348FEF7E3F90346002B01D000F0AAF9E9
:104BB8004FF48053BB6207F1280319461C48FEF7DF
:104BC80095FC0346002B01D000F09CF91848FEF72D
:104BD800F8F90346002B01D000F094F900233B625A
:104BE80000237B6207F1200319461148FFF752F8AA
:104BF8000346002B01D000F085F960237B604FF459
:104C08004873BB600023FB6000237B613B1D0022CF
:104C180019460748FEF7A4FB0346002B01D000F015
:104C280071F9034800F0BAFA00BF3837BD4680BDB5
:104C38004001002080B58CB000AF07F10C0324229E
:104C48000021184600F002FC3B1D00221A605A6041
:104C5800204B214A1A601F4B00225A601D4B00222C
:104C68009A601C4B0022DA601A4B00221A61194B19
:104C780000229A610323FB6000233B6101237B61CF
:104C88000023BB610023FB6100233B6201237B629D
:104C98000023BB620023FB6207F10C0319460D4891
:104CA800FEF7C4F90346002B01D000F02BF90023CE
:104CB8007B600023BB603B1D19460648FEF7EAFFF0
:104CC8000346002B01D000F01DF900BF3037BD4668
:104CD80080BD00BFC00000200004004080B58CB03B
:104CE80000AF07F10C0324220021184600F0AEFBA8
:104CF8003B1D00221A605A60204B214A1A601F4B44
:104D080000225A601D4B00229A601C4B4FF6FF721E
:104D1800DA601A4B00221A61184B00229A610323A9
:104D2800FB6000233B6101237B610023BB610023FF
:104D3800FB6100233B6201237B620023BB620023EB
:104D4800FB6207F10C0319460C48FEF76FF903469E
:104D5800002B01D000F0D6F800237B600023BB6055
:104D68003B1D19460548FEF795FF0346002B01D069
:104D780000F0C8F800BF3037BD4680BD2C000020C9
:104D88000008004080B500AF114B124A1A60104B62
:104D98004FF4E1325A600E4B00229A600C4B00220D
:104DA800DA600B4B00221A61094B0C225A61084B3E
:104DB80000229A61064B0022DA610548FEF7FAFFE5
:104DC8000346002B01D000F09DF800BF80BD00BF56
:104DD80000010020004C004080B58AB000AF07F108
:104DE800140300221A605A609A60DA601A6100237C
:104DF8003B61404B1B6B3F4A43F0800313633D4BC1
:104E08001B6B03F080033B613B690023FB60394B5C
:104E18001B6B384A43F001031363364B1B6B03F0DB
:104E28000103FB60FB680023BB60324B1B6B314AFC
:104E380043F0040313632F4B1B6B03F00403BB60A5
:104E4800BB6800237B602B4B1B6B2A4A43F0020391
:104E58001363284B1B6B03F002037B607B68002203
:104E68004FF480512448FBF79BFE42F202037B611A
:104E7800224BBB610023FB6107F11403194620484C
:104E8800FBF7F4FC20237B611C4BBB610023FB6117
:104E980007F1140319461848FBF7E8FC4FF4805350
:104EA8007B610123BB610023FB6100233B6207F1A7
:104EB800140319461048FBF7D9FC002200210720EB
:104EC800FBF76DFC0720FBF786FC0022002117206A
:104ED800FBF765FC1720FBF77EFC00220021282049
:104EE800FBF75DFC2820FBF776FC00BF2837BD46A2
:104EF80080BD00BF003802400008024000001110C9
:104F08000000024080B400AF00BFBD465DF8047BDE
:104F18007047000080B483B000AF00237B60104B63
:104F28005B6C0F4A43F4804353640D4B5B6C03F492
:104F380080437B607B6800233B60094B1B6C084AFD
:104F480043F080531364064B1B6C03F080533B60A3
:104F58003B6800BF0C37BD465DF8047B704700BF57
:104F68000038024080B58AB000AF786007F11403BA
:104F780000221A605A609A60DA601A617B681B68BE
:104F8800214A93423CD100233B61204B1B6B1F4AB3
:104F980043F0020313631D4B1B6B03F002033B61D9
:104FA8003B694FF440637B611223BB610123FB61C2
:104FB80003233B6204237B6207F114031946144858
:104FC800FBF754FC0023FB60104B1B6C0F4A43F4A7
:104FD800800313640D4B1B6C03F48003FB60FB68B8
:104FE800002200212120FBF7DAFB2120FBF7F3FB4D
:104FF800002200212220FBF7D2FB2220FBF7EBFB4B
:1050080000BF2837BD4680BD005800400038024028
:105018000004024080B485B000AF78607B681B68EC
:10502800B3F1804F0DD10023FB60094B1B6C084A7C
:1050380043F001031364064B1B6C03F00103FB6090
:10504800FB6800BF1437BD465DF8047B704700BF9E
:105058000038024080B58CB000AF786007F11C03BF
:1050680000221A605A609A60DA601A617B681B68CD
:10507800454A934252D10023BB61444B1B6C434ABF
:1050880043F002031364414B1B6C03F00203BB6142
:10509800BB6900237B613D4B1B6B3C4A43F001031A
:1050A80013633A4B1B6B03F001037B617B6900239D
:1050B8003B61364B1B6B354A43F002031363334B9A
:1050C8001B6B03F002033B613B698023FB610223F6
:1050D8003B6200237B620023BB620223FB6207F171
:1050E8001C0319462A48FBF7C1FB1023FB61022366
:1050F8003B6200237B620023BB620223FB6207F151
:105108001C0319462348FBF7B1FB002200211D2090
:10511800FBF745FB1D20FBF75EFB30E07B681B6857
:105128001D4A93422BD10023FB60184B1B6C174A76
:1051380043F004031364154B1B6C03F00403FB607A
:10514800FB680023BB60114B1B6B104A43F0020342
:1051580013630E4B1B6B03F00203BB60BB68C023D9
:10516800FB6102233B6200237B620023BB620223B4
:10517800FB6207F11C0319460648FBF777FB00BFE3
:105188003037BD4680BD00BF0004004000380240F3
:1051980000000240000402400008004080B588B0CA
:1051A80000AF786007F10C0300221A605A609A6019
:1051B800DA601A617B681B68B3F1804F1DD1002348
:1051C800BB60104B1B6B0F4A43F0010313630D4B7D
:1051D8001B6B03F00103BB60BB680123FB60022368
:1051E8003B6100237B610023BB610123FB6107F165
:1051F8000C0319460448FBF739FB00BF2037BD46AE
:1052080080BD00BF003802400000024080B58AB06F
:1052180000AF786007F1140300221A605A609A60A0
:10522800DA601A617B681B681D4A934234D10023F7
:105238003B611C4B1B6C1B4A43F400231364194B42
:105248001B6C03F400233B613B690023FB60154B97
:105258001B6B144A43F004031363124B1B6B03F0DC
:105268000403FB60FB684FF440637B610223BB616E
:105278000123FB6103233B6208237B6207F11403CC
:1052880019460948FBF7F2FA002200213420FBF7FF
:1052980086FA3420FBF79FFA00BF2837BD4680BD49
:1052A800004C0040003802400008024080B400AFC3
:1052B80000BFBD465DF8047B704780B400AFFEE7D1
:1052C80080B400AFFEE780B400AFFEE780B400AF63
:1052D800FEE780B400AF00BFBD465DF8047B7047B1
:1052E80080B400AF00BFBD465DF8047B704780B452
:1052F80000AF00BFBD465DF8047B704780B500AFC6
:10530800FBF730F900BF80BD80B500AF0220FBF786
:1053180061FC00BF80BD80B500AF2020FBF75AFCC0
:1053280000BF80BD80B500AF0248FDF711FF00BF88
:1053380080BD00BFC000002080B500AF0248FBF769
:10534800A5FD00BF80BD00BF6C00002080B500AF88
:105358000248FBF701FF00BF80BD00BF6C000020C2
:1053680080B500AF4FF40050FBF734FC00BF80BDA0
:1053780080B500AF0248FEF76BFD00BF80BD00BFDF
:105388000001002080B400AF084BD3F88830074AEA
:1053980043F47003C2F88830044B4FF000629A60FF
:1053A80000BFBD465DF8047B704700BF00ED00E01C
:1053B800DFF834D0002103E00C4B5B584350043134
:1053C8000B480C4B42189A42F6D30B4A02E00023D2
:1053D80042F8043B094B9A42F9D3FFF7D3FF00F098
:1053E80011F8FFF7F1FA704700000220A4540008F2
:1053F800000000200C0000200C000020800100208C
:10540800FEE7000070B50D4E0D4CA41BA41000253E
:10541800A54209D10B4E0C4C00F020F8A41BA41097
:105428000025A54205D170BD56F8253098470135AD
:10543800EEE756F8253098470135F2E79C54000806
:105448009C5400089C540008A054000802440346D9
:10545800934200D1704703F8011BF9E7F8B500BF84
:10546800F8BC08BC9E467047F8B500BFF8BC08BC3D
:045478009E46704795
:10547C0000000000000000000102030406070809F8
:08548C0000000000010203040E
:0854940064ADFF7F0100000080
:04549C00AD01000856
:0454A0008901000876
:0C54A40010000000010000000024F400D3
:04000005080053B9E3
:00000001FF
